S00D000044617920352E73726563A4
S11300000C9434000C9446000C9446000C94460066
S11300100C9446000C9446000C9446000C94460044
S11300200C9446000C9446000C9446000C94460034
S11300300C9446000C9446000C9446000C94460024
S11300400C9446000C9446000C9446000C94460014
S11300500C9446000C9446000C9446000C94460004
S11300600C9446000C94460011241FBECFEFD8E038
S1130070DEBFCDBF21E0A0E0B1E001C01D92A230FF
S1130080B207E1F70E9448000C9469000C94000048
S113009085B5856085BD16BC209A21E086B58E3F66
S11300A050F080910001909101010196909301011B
S11300B08093000116BC8091000190910101049786
S11300C06CF385B1822785B9109201011092000169
S10900D0E5CFF894FFCF18
S9030000FC
