S013000054656D70657261747572652E7372656383
S11300000C942A000C943F000C943F000C943F0085
S11300100C943F000C943F000C943F000C943F0060
S11300200C943F000C943F000C943F000C943F0050
S11300300C943F000C943F000C943F000C943F0040
S11300400C943F000C943F000C943F000C943F0030
S11300500C943F0011241FBECFE5D8E0DEBFCDBF16
S113006010E0A0E6B0E0E8EFF0E002C005900D92E9
S1130070A037B107D9F70E945E000C947A000C9463
S113008000008AB188618AB98CE089B910BC80B556
S1130090866880BD08955D9BFECF8CB90895CF938B
S11300A0DF93EC018881882331F021960E944B0074
S11300B089918111FBCFDF91CF9108950E94410076
S11300C080E690E00E944F0087E690E00E944F0097
S11300D08BE690E00E944F008EE690E00E944F0075
S11300E02FE38DE093E0215080409040E1F700C081
S10B00F00000E6CFF894FFCFF5
S11300F854656D703A2000202020003338000A002F
S9030000FC
