S01500006469676974616C20636C6F636B2E7372656305
S11300000C9434000C9451000C9451000C94510045
S11300100C9451000C9451000C9451000C94510018
S11300200C9451000C9451000C9451000C94510008
S11300300C9451000C94C2010C9451000C94510086
S11300400C9451000C9451000C9451000C945100E8
S11300500C9451000C9451000C9451000C945100D8
S11300600C9451000C94510011241FBECFEFD8E022
S1130070DEBFCDBF11E0A0E0B1E0E6E7F4E002C0EE
S113008005900D92A830B107D9F721E0A8E0B1E0BE
S113009001C01D92A031B207E1F70E9480010C94C7
S11300A039020C94000084B18F7084B92A9A29987B
S11300B000002B9A000083B1807F00002B98000081
S11300C02B9A000093B100002B98000088238CF336
S11300D02A9884B1806F84B90895382F32953F707F
S11300E0982F9F70611102C0299801C0299A0000BD
S11300F02B9A25B1822F8F7040E1349F90011124F7
S1130100282B25B900002B9800002B9A85B1282FA5
S11301102F7030E1939FC0011124822B85B9000018
S11301202B9800000E9453000895CF93C82F8BE4AE
S11301309DE10197F1F700C0000084B1806F84B99C
S1130140239A219A229A85B18F7085B92B982A987F
S1130150299800002B9A2D9A00002B9800000E94E9
S1130160530060E08C2F8C600E946D0060E088E298
S11301700E946D0060E080E40E946D0060E080E811
S11301800E946D00CF9108950F931F93CF93DF9337
S11301908C01FC018081882309F18532A9F4E801EE
S11301A02196F80181818053883020F461E00E9417
S11301B06D000EC061E085E20E946D0061E0F8010F
S11301C081810E946D0004C061E00E946D00E8011D
S11301D08E010F5F1F4F89818111DFCFDF91CF9196
S11301E01F910F910895EF92FF920F931F93CF9356
S11301F0DF9300D000D01F92CDB7DEB77B01FE01A4
S1130200319625E0DF011D922A95E9F7009759F010
S113021035962AE030E0B9010E9411028293862FBC
S1130220972F0097C1F7BFEFEB16FB0669F489819E
S113023081111EC0FE01329600E010E00F5F1F4FD7
S113024081918823D9F310C005E010E00E191F092D
S11302500BC0F80181918F0161E0805D0E946D0007
S11302600E151F05B1F711C0053011051CF00DC0A6
S113027000E010E081E090E08C0F9D1F080F191F33
S11302807E0196E0E90EF11CE4CF0F900F900F90E1
S11302900F900F90DF91CF911F910F91FF90EF90EE
S11302A00895883290F4613041F028F0623039F0DA
S11302B0633039F007C0806805C0806C03C084696E
S11302C001C0846D60E00E946D000895E1E8F0E0F3
S11302D08081826080838CE790E090938700809394
S11302E08600808188618083E0E8F0E0808182601C
S11302F080837894EFE6F0E08081816080830895C4
S113030080E00E9495000E94660160E080E00E9407
S1130310510180E091E00E94C40061E080E00E940D
S1130320510162E070E080910801909109010E94FE
S1130330F30061E082E00E94510186E091E00E94B6
S1130340C40061E083E00E94510162E070E08091AA
S11303500A0190910B010E94F30061E085E00E9484
S1130360510186E091E00E94C40061E086E00E94B1
S1130370510162E070E080910C0190910D010E94A6
S1130380F300CBCF1F920F920FB60F9211242F932D
S11303908F939F9380910E0190910F0101969093FA
S11303A00F0180930E01883E93406CF080910C0104
S11303B090910D01019690930D0180930C01109280
S11303C00F0110920E0180910C0190910D01CC97B8
S11303D06CF080910A0190910B01019690930B01AE
S11303E080930A0110920D0110920C0180910A0170
S11303F090910B01CC976CF08091080190910901C8
S11304000196909309018093080110920B011092B8
S11304100A019F918F912F910F900FBE0F901F9003
S1130420189597FB072E16F4009407D077FD09D092
S11304300E94250207FC05D03EF4909581959F4FBC
S11304400895709561957F4F0895AA1BBB1B51E1D8
S113045007C0AA1FBB1FA617B70710F0A61BB70B30
S1130460881F991F5A95A9F780959095BC01CD01D5
S10904700895F894FFCF8B
S10B0476434C4F434B003A00D4
S9030000FC
