S00D000044617920332E73726563A6
S11300000C942A000C943F000C943F000C943F0085
S11300100C943F000C943F000C943F000C943F0060
S11300200C943F000C943F000C943F000C943F0050
S11300300C943F000C943F000C943F000C943F0040
S11300400C943F000C943F000C943F000C943F0030
S11300500C943F0011241FBECFE5D8E0DEBFCDBF16
S113006010E0A0E6B0E0E8E4F3E002C005900D92F1
S1130070AE36B107D9F70E9460010C94A2010C942A
S1130080000081B3877881BB919A90980000929A7E
S1130090000080B38695869586958295807F0000C2
S11300A092980000929A000090B300009298000089
S11300B088236CF3919881B3886781BB0895982F46
S11300C092959F708F70611102C0909801C0909AB0
S11300D00000929A22B32778990F990F990F922BC7
S11300E092BB000092980000929A92B39778880F7E
S11300F0880F880F892B82BB0000929800000E9411
S113010041000895CF93C82F8BE49DE10197F1F747
S113011000C0000081B3886781BB8A9A889A899A53
S113012082B3877882BB9298919890980000929AB3
S1130130949A0000929800000E94410060E08C2F85
S11301408C600E945F0060E088E20E945F0060E0D3
S113015080E40E945F0060E080E80E945F00CF912D
S113016008950F931F93CF93DF938C01FC0180813B
S1130170882309F18532A9F4E8012196F8018181E7
S11301808053883020F461E00E945F000EC061E07B
S113019085E20E945F0061E0F80181810E945F00B6
S11301A004C061E00E945F00E8018E010F5F1F4FF1
S11301B089818111DFCFDF91CF911F910F91089534
S11301C0EF92FF920F931F93CF93DF9300D000D051
S11301D01F92CDB7DEB77B01FE01319625E0DF012A
S11301E01D922A95E9F7009759F035962AE030E0F8
S11301F0B9010E947A018293862F972F0097C1F745
S1130200BFEFEB16FB0669F4898181111EC0FE0164
S1130210329600E010E00F5F1F4F81918823D9F3DD
S113022010C005E010E00E191F090BC0F801819100
S11302308F0161E0805D0E945F000E151F05B1F71C
S113024011C0053011051CF00DC000E010E081E084
S113025090E08C0F9D1F080F191F7E0196E0E90E98
S1130260F11CE4CF0F900F900F900F900F90DF913F
S1130270CF911F910F91FF90EF900895883290F4E1
S1130280613041F028F0623039F0633039F007C052
S1130290806805C0806C03C0846901C0846D60E01F
S11302A00E945F000895379A319A309A3E9A0895D1
S11302B0389A369A349BFECF349A84B195B1089516
S11302C080E00E94820060E080E00E943E0180E6BF
S11302D090E00E94B1000E9453010E945801EC0179
S11302E061E080E00E943E0164E070E0CE010E9483
S11302F0E000F3CF97FB072E16F4009407D077FDA8
S113030009D00E948E0107FC05D03EF4909581959A
S11303109F4F0895709561957F4F0895AA1BBB1B4D
S113032051E107C0AA1FBB1FA617B70710F0A61BF1
S1130330B70B881F991F5A95A9F780959095BC0112
S10B0340CD010895F894FFCFEC
S111034854484F52205241474E4152414B00FF
S9030000FC
