S00D000044617920382E73726563A1
S11300000C942A000C9434000C9434000C943400A6
S11300100C9434000C9434000C9434000C9434008C
S11300200C9434000C9434000C9434000C9434007C
S11300300C9434000C9434000C9434000C9434006C
S11300400C9434000C9434000C9434000C9434005C
S11300500C94340011241FBECFE5D8E0DEBFCDBF21
S11300600E9444000C945C000C9400008AB18861E6
S11300708AB98CE089B910BC80B5866880BD0895C2
S11300805D9BFECF8CB908950E94360081E490E018
S11300900E94400082E490E00E94400083E490E0EB
S11300A00E9440002FE38DE093E021508040904077
S10F00B0E1F700C00000EACFF894FFCF95
S9030000FC
