:100000000C942A000C9447000C9447000C94470071
:100010000C9447000C9447000C9447000C94470044
:100020000C9447000C9447000C9447000C94470034
:100030000C9447000C9447000C9447000C94470024
:100040000C9447000C9447000C9447000C94470014
:100050000C94470011241FBECFE5D8E0DEBFCDBF12
:1000600010E0A0E6B0E0E2EFF0E002C005900D92F3
:10007000AA36B107D9F710E0AAE6B0E001C01D9298
:10008000AA36B107E1F70E9453000C9477000C9454
:1000900000008AB188618AB98CE089B910BC80B54A
:1000A000866880BD08950E944900C0E6D0E0CE0178
:1000B0000E9468008FE39DE0A3E081509040A04043
:1000C000E1F700C00000F3CF5D9BFECF8CB908952F
:1000D000CF93DF93EC018881882331F021960E9431
:1000E000640089918823D9F7DF91CF910895F8941E
:0200F000FFCF40
:0A00F20042554554204545450000E5
:00000001FF
